:020000040800F2
:1000000000500020493700084537000843370008F2
:10001000433700084337000843370008000000005A
:10002000000000000000000000000000453700084C
:10003000453700080000000045370008110B000894
:100040004337000843370008433700089D04000881
:100050004337000843370008433700084337000898
:100060004337000843370008433700084337000888
:100070004337000843370008433700084337000878
:100080004337000843370008433700084337000868
:1000900001040008433700084337000843370008CD
:1000A0004337000843370008433700084337000848
:1000B0004337000843370008B50B000843370008F2
:1000C0004337000843370008433700084337000828
:1000D00043370008D50800084337000843370008B5
:1000E0004337000843370008E90300084337000896
:1000F00043370008433700084337000843370008F8
:1001000043370008433700084337000843370008E7
:1001100043370008433700084337000843370008D7
:1001200043370008433700084337000843370008C7
:1001300043370008433700084337000843370008B7
:1001400043370008433700084337000843370008A7
:1001500080B485B000AFF860B9607A603B60BB687E
:100160005B78202B03D0222B09D1012308E03B68C8
:100170001B88062B01D8002302E0012300E00023A6
:1001800018461437BD4680BC704780B594B000AFA8
:1001900078600B46FB7007F1080240230121786864
:1001A00002F077FE0346BB64BB6C9BB207F108020A
:1001B0008221786802F066FE002387F84F300EE057
:1001C00097F84F3007F15002134413F8483C184693
:1001D00000F0ECF897F84F30013387F84F3097F87C
:1001E0004F30BA6C9A42EBDC00BF5037BD4680BD41
:1001F00080B483B000AF78600B46FB7000BF0C3753
:10020000BD4680BC7047000080B584B002AF786006
:100210000B467B80124B0093402302220121786819
:1002200002F010FE0F4B00934023022282217868D7
:1002300002F008FE00230093102303228321786834
:1002400002F000FE084B7F222121786802F0EBFECD
:100250007B88064AC2F8DC3200BF0837BD4680BD45
:100260008B010008F101000851010008280A002054
:1002700080B586B004AF4FF400430022022120482D
:1002800002F0ABFB4FF400411D4802F003FD802358
:1002900002931C4B0193032300931B4B1B4A1C49E5
:1002A0001C4802F0A3FD02461B4B1A611A4B1B6946
:1002B0001A49184603F084F93B464FF4FA61184690
:1002C00000F0FCFC4FF400410D4802F0E1FC4FF45B
:1002D00000721349104800F096FA0F4B0022C3F841
:1002E000DC220D4B0022C3F8D422142003F0AAFA1A
:1002F0002A2003F0A7FA00BF0837BD4680BD00BF23
:10030000000801403C0A002000000020587B000843
:10031000B07A000824BA0008280A00200902000860
:10032000BC0A002080B582B000AF1E4BD3F8DC328F
:10033000002B31D00CE01B4BD3F8D4325A1C194996
:10034000C1F8D422F979174A13440A4683F8942253
:10035000144BD3F8D4323F2B07D8FB1D1946114854
:1003600000F069FA0346002BE5D10E4BD3F8D432E6
:10037000002B14D00B4B18690A4BD3F8D4329BB224
:10038000094A822102F07EFD0346002B06D0054B70
:100390000022C3F8D42202E000BF00E000BF08370B
:1003A000BD4680BD280A0020BC0C002080B584B06A
:1003B00000AF0346FB71FB7919460A4800F062FA68
:1003C0000346002B0AD107F10F031946054800F038
:1003D00032FAFB791946034800F054FA00BF10378F
:1003E000BD4680BD280A002080B500AF034B1B69C5
:1003F000184602F023FD00BF80BD00BF280A002080
:1004000080B500AF034B1B69184602F017FD00BF13
:1004100080BD00BF280A002090B587B000AF78608B
:1004200039603B684FF00004C7E9023407F1080364
:10043000184603F09FFC78617B691B685AB27B68A1
:10044000DA717B695B685AB27B689A717B699B68D9
:100450005AB27B685A717B69DB685AB27B68DA7082
:100460007B699B69DBB20133DBB25AB27B681A71DC
:100470007B691B69DBB20133DBB25AB27B689A70CD
:100480007B695B699BB203F26C739BB21AB27B68A7
:100490001A8000BF1C37BD4690BD000080B582B0F9
:1004A00000AF002002F0DCFB02F0D0FB03467B60D3
:1004B0007B6819460348FFF7AFFF00BF0837BD460A
:1004C00080BD00BF080D002080B586B000AFF86089
:1004D000B9607A60FB68012B02D0FB68022B1BD14C
:1004E00000237B6112E07B69BA6813441B780A2BF6
:1004F00002D10D20FFF75AFF7B69BA6813441B78BD
:100500001846FFF753FF7B6901337B617A697B688B
:100510009A42E8DB7B6906E003F026FC02460523ED
:1005200013604FF0FF3318461837BD4680BD0000FA
:1005300080B584B000AFF8607B600B46FB72134659
:10054000BB72FB7A283B262B00F2A08001A252F856
:1005500023F000BFF10500080F0600081906000887
:10056000210600088D0600088D0600088D0600088B
:100570008D0600088D0600088D0600088D0600080F
:100580008D0600088D0600088D0600088D060008FF
:100590008D0600088D0600088D0600088D060008EF
:1005A0008D0600088D0600088D0600088D060008DF
:1005B0008D060008250600083F0600088D06000885
:1005C0008D0600088D0600088D0600088D060008BF
:1005D0008D0600088D0600088D06000891060008AB
:1005E000730600088D0600088D06000859060008ED
:1005F00040F2033002F0E3FBB82300220321274836
:1006000002F0EBF9B821254802F042FB41E0BB7A49
:10061000184600F023FA3CE00A2000F009FA38E01E
:1006200000BF36E0BB7A002B04D020211B4802F02B
:100630002FFB2EE02021194802F02CFB29E0BB7A89
:10064000002B04D08021154802F022FB21E08021FC
:10065000124802F01FFB1CE0BB7A002B04D01021D3
:100660000E4802F015FB14E010210C4802F012FBBA
:100670000FE0BB7A002B04D00821084802F008FBE9
:1006800007E00821054802F005FB02E0002301E035
:1006900000BF012318461037BD4680BD0008014049
:1006A00080B584B002AF00F087F800F059F900F08F
:1006B00051FAFFF7DDFD00F073F83B46184600F0F5
:1006C000BFFA2E4B2E4A2F492F4800F0FBFB2E4835
:1006D00002F0F7F82C4800F063FB01212A4801F0F2
:1006E0002EF80021284801F09FF92849264801F0FA
:1006F00081F9274B12223A21234801F0DDF8192312
:1007000000934623002238211F4800F0F1FA1923F4
:10071000009346231C2238211B4800F0E9FA1D49AA
:10072000194801F067F9432332220221164801F0EB
:1007300015F83F230093372300220021124800F0D0
:10074000D7FA114800F09FFB3B464FF4FA71184668
:1007500000F08EFA0346002B0AD10B4800F093FB01
:100760000D4803F03FFD4FF400510C4802F095FA9C
:10077000FFF7D8FD02F0E4FAE6E700BF3105000814
:1007800041220008D8B90008100D0020F87D0008AB
:10079000887B0008A47B0008947B000800100140BF
:1007A00080B500AF02F0CCFA41F2883002F096FA40
:1007B00002F07CFA00BF80BD80B500AF02F000FA05
:1007C00040F2023002F0FBFA40F2033002F0F7FA96
:1007D0004FF4417002F0F3FA40F2053002F0EFFA04
:1007E0004FF4407002F0EBFA40F20B3002F0E7FAFF
:1007F00040F2813002F0E3FA00214FF0007002F085
:100800001DF900BF80BD80B485B000AFF860B9604D
:100810007A60FB68BA681A60FB687A685A60FB689D
:1008200000229A60FB689A68FB68DA6000BF1437A0
:10083000BD4680BC704780B483B000AF786039603B
:100840007B68DA687B689B689A4201D1002314E0D8
:100850007B681A687B68DB6813441A783B681A70F7
:100860007B68DB6801337A685268B3FBF2F102FB04
:1008700001F29A1A7B68DA60012318460C37BD46EC
:1008800080BC704780B485B000AF78600B46FB70C9
:100890007B689B6801337A685268B3FBF2F102FB14
:1008A00001F29B1AFB607B68DB68FA689A4201D10F
:1008B00000230AE07B681A687B689B681344FA7817
:1008C0001A707B68FA689A60012318461437BD468F
:1008D00080BC704780B582B000AF114B1B6803F03D
:1008E0002003002B17D00F4B1B6803F02003002BB5
:1008F00011D00C4802F05FFA0346FB71FB791946F0
:100900000948FFF7BFFF00F051F80246074B1A6095
:10091000074B01221A7000BF0837BD4680BD00BFDB
:100920000C38014000380140A00D00209C0D002033
:10093000980D002080B400AF074B1B68064A43F0B7
:1009400080731360054B1B68044A43F00103136076
:1009500000BFBD4680BC7047FCED00E0001000E029
:1009600080B500AF0E4B00221A6072B6042002F070
:100970004DFF0C4B1B680C4AA2FB03239B09184636
:1009800002F02CFF02F04EFF02F054FFFF21FF2087
:1009900002F066FF62B6FFF7CDFF00BF80BD00BF6B
:1009A000B00D00200C000020D34D621080B400AFC9
:1009B000024B1B681846BD4680BC7047B00D002036
:1009C00080B485B000AF786039603A687B689A423D
:1009D00004D93A687B68D31AFB6004E03A687B6804
:1009E000D31A2233FB60FB6818461437BD4680BC1F
:1009F000704780B584B000AF7860396002F0F6FED1
:100A00000346013BBB603A687B689A4204D93A6866
:100A10007B68D31AFB6006E03A687B68D21ABB6831
:100A200013440133FB60FB6818461037BD4680BD98
:100A300080B584B000AF786002F0E0FE0346FB6052
:100A400000BF07F10C037968184600F03CF8034634
:100A5000002BF6D000BF1037BD4680BD80B584B0F6
:100A600000AF7860FFF7A2FF0346FB6000BF07F10D
:100A70000C037968184600F007F80346002BF6D0FF
:100A800000BF1037BD4680BD80B584B000AF786030
:100A90003960FFF78BFFF8607B681B68F9681846C0
:100AA000FFF78EFFB860BA683B689A4201D2002314
:100AB00005E0FFF77BFF02467B681A6001231846BA
:100AC0001037BD4680BD80B584B000AF7860396016
:100AD0003A681346DB001344DB003B6002F08EFEF5
:100AE000F8607B681B681946F868FFF782FFB860FA
:100AF000BA683B689A4201D2002305E002F07EFE0C
:100B000002467B681A60012318461037BD4680BD37
:100B100080B400AF0C4B1B68002B03D10B4B0022A1
:100B20001A6008E0084B1B68B3F57A7F03D1074BC6
:100B30001B68074A1360044B1B680133024A1360A9
:100B400000BFBD4680BC7047B00D0020041000E01F
:100B5000B40D002080B500AF40F2823002F02FF9D2
:100B6000002300220021124802F0FFF84FF47A71AE
:100B70000F4802F01CF947210D4802F016F9002138
:100B80000B4802F0FBF82021094802F006F908485A
:100B900002F0FEF80121064802F0DAF8FF211E20DB
:100BA00002F05EFE1E2002F04DFE00BF80BD00BFC1
:100BB0000008004080B500AF0121084802F0CCF8E1
:100BC0000346002B08D00121044802F0CBF8044B67
:100BD0001B680133024A136000BF80BD000800405B
:100BE000BC0D002080B487B000AF0346B9607A60C6
:100BF000FB73FB7B002B03D14FF47A733B6102E064
:100C00004FF0FF333B617A68BB689A4206D97B6834
:100C10009AB2BB689BB2D31AFB820BE07B689AB294
:100C2000BB689BB2D31A9AB23B699BB213449BB286
:100C30000133FB82FB8A18461C37BD4680BC7047D7
:100C400080B582B000AF7860074B1A687B685A6045
:100C5000064802F0AEF803469AB27B681A8000BFDD
:100C60000837BD4680BD00BFBC0D00200008004015
:100C700080B582B000AF786039600E4B1B689AB2C5
:100C80000D4B1A807B6859680B4B1B881A46012054
:100C9000FFF7A8FF02463B68934206D8064B1B8825
:100CA0001A467B685A60002300E001231846083783
:100CB000BD4680BDBC0D0020B80D002080B582B0BF
:100CC00000AF78600B467B80084B1A687B685A60DF
:100CD00000BF7B8819467868FFF7CAFF0346002BE0
:100CE000F7D100BF0837BD4680BD00BFBC0D002056
:100CF00080B586B002AF7860084611461A460346B2
:100D0000FB700B46BB7013467B70FB78FB73FA7865
:100D10007B781344D8B2BA783B7E1344DBB2BA78FE
:100D2000F97800930346786800F0B1FF0346002B82
:100D300032D07878BA78F97800230093034678683F
:100D400000F0EFFE387EBA78F9780123009303466D
:100D5000786800F0E6FEFA787B781344FB70FB7845
:100D6000013BFB70387EBA78F97801230093034683
:100D7000786800F0D6FEBA783B7E1344BB70BB782F
:100D8000013BBB707878BA78F97B00230093034667
:100D9000786800F0C6FE00E000BF1037BD4680BD99
:100DA00080B584B000AF78607B681B681B7CFB60FB
:100DB0007B6893F83C301A46FB6802FB03F3FB6048
:100DC000FB68DB00FB607B689B6BFA6800211846C0
:100DD00003F070F900BF1037BD4680BD80B586B006
:100DE00002AF78600B46FB701346BB707B681B68D4
:100DF0001B7CFB73FB78BB817B689B6BBB60FB7BC5
:100E00009BB2BA8902FB03F3BB81BB89DB00BB81C8
:100E1000BB89BA681344BB60F97BBA78BB6800939E
:100E20000B460021786801F01BFD00BF1037BD465E
:100E300080BD80B584B000AF78600023FB737B6811
:100E400093F83C307B737B6893F83D30BB737B68D1
:100E50001B685B7C3B73BA7BFB7B19467868FFF7AA
:100E6000BDFFFB7B0133FB73BB7B0133BB73FA7BA1
:100E70007B7B9A4203D2BA7B3B7B9A42EBD300BF87
:100E80001037BD4680BD80B582B000AF786078680D
:100E9000FFF7CFFF786801F023FD00BF0837BD469C
:100EA00080BD000080B483B000AF78607B6808220A
:100EB0001A70034B18460C37BD4680BC704700BF04
:100EC000C00D002080B588B002AFF860B9607A60CC
:100ED0003B603B6800937B680B4A0C49F86801F063
:100EE0005FFD07F113031846FFF7DCFF7861FA7C1A
:100EF000BB680093064B7969F86800F099FF00BF62
:100F00001837BD4680BD00BFF124000881270008C6
:100F1000E51C000880B483B000AF78600B46FB701E
:100F2000FB787A6813447B607B681B7818460C3723
:100F3000BD4680BC704780B485B000AF78600B467A
:100F4000FB70FB787A6813447B607B681B78FB81BD
:100F50007B6801337B60FB891B02FB817B681B780C
:100F60009AB2FB891344FB81FB8918461437BD46AE
:100F700080BC704780B582B000AF786039600021D6
:100F80003868FFF7C7FF03461A467B681A700121CD
:100F90003868FFF7BFFF03461A467B685A70022184
:100FA0003868FFF7B7FF03461A467B689A7003213B
:100FB0003868FFF7AFFF03461A467B68DA700421F2
:100FC0003868FFF7A7FF03461A467B681A710521A8
:100FD0003868FFF79FFF03461A467B685A7106215F
:100FE0003868FFF797FF03461A467B689A71072116
:100FF0003868FFF78FFF03461A467B68DA710821CD
:101000003868FFF787FF03461A467B681A72092182
:101010003868FFF77FFF03465AB27B685A720A218D
:101020003868FFF777FF03465AB27B689A720B2144
:101030003868FFF76FFF03465AB27B68DA720C21FB
:101040003868FFF767FF03465AB27B681A730D21B1
:101050003868FFF75FFF03465AB27B685A730E2168
:101060003868FFF757FF03465AB27B689A730F211F
:101070003868FFF74FFF03465AB27B68DA731021D6
:101080003868FFF747FF03465AB27B681A7411218C
:101090003868FFF750FF03461A467B685A821321CF
:1010A0003868FFF748FF03461A467B689A82152185
:1010B0003868FFF740FF03461A467B68DA8200BFB4
:1010C0000837BD4680BD80B485B000AF78600B4660
:1010D000FB707B689B7A7B737B681B681B78FB7358
:1010E000FA7B7B7B42FA03F3FB737B7BBB73BA7B9C
:1010F000FB781344BB73BB7B072B1AD908233B73C4
:101100003A7B7B7BD31A3B737B681B685A1C7B68DA
:101110001A607B681B681B781A463B7B02FA03F354
:101120005AB297F90F3013435BB2FB73BB7B083B9A
:10113000BB73FB784FF0FF3202FA03F3DBB2DB4301
:10114000DAB2FB7B1340FB737B68BA7B9A72FB7B42
:1011500018461437BD4680BC704780B584B000AFD8
:1011600078600B46FB70FB7819467868FFF7ABFF99
:101170000346FB730123BB73FB78013BFB7097F9BC
:101180000E20FB7802FA03F3BB73FA7BBB7BD31A06
:10119000DBB2FB7397F90F3018461037BD4680BDA0
:1011A00090B482B000AF0446084611461A46234662
:1011B000FB710346BB710B467B7113463B713B7958
:1011C000012B08D0022B0BD0002B0ED17A79FB79A2
:1011D0001344FB710EE0BA79FB791344FB7109E00B
:1011E0007B79FA79D31AFB7104E0BB79FA79D31AC7
:1011F000FB7100BFFB7918460837BD4690BC7047AD
:1012000090B482B000AF0446084611461A46234601
:10121000FB710346BB710B467B7113463B713B79F7
:10122000012B08D0022B0BD0002B0ED1BA79FB7901
:101230001344FB710EE07B79FA79D31AFB7109E054
:10124000BB79FA79D31AFB7104E07A79FB791344FC
:10125000FB7100BFFB7918460837BD4690BC70474C
:1012600080B588B002AF78600B46FB701346BB7048
:101270007B6858333B61FB78FB753B6993F906301B
:101280007B753B6993F907303B753B6993F90830EF
:10129000FB73FA7B7B7DD31AFB73FB7BBB75FA7DFB
:1012A000FB7B9A4201D2FB7DBB753B691B79BB730B
:1012B0003B695B797B7397F9151097F914203B69AB
:1012C0009B7BB87BFFF79CFF0346BB7397F9151018
:1012D00097F914203B699B7B787BFFF761FF0346FE
:1012E0007B73BB78002B0FD03B691A7B7B6883F83C
:1012F00086203B699B7BB87D7A7BB97B0093034654
:10130000786800F00EFC12E03B69DB7A002B0ED10E
:101310003B695A7B7B6883F886203B699B7BB87D61
:101320007A7BB97B00930346786800F0FAFBFA7D7C
:10133000FB7B9A4209D3FA7DFB7BD31AFB75002312
:101340007B753B7D01333B759FE700BF7A7DFB7D5D
:1013500013447B7597F915203B699A7197F914200E
:101360003B69DA7100BF1837BD4680BD80B584B0D7
:1013700000AF786039607B685833FB60FB683A687F
:101380001A60FB6800229A727B6893F86C301946E9
:10139000F868FFF798FE03465AB2FB681A727B683A
:1013A00093F86D301946F868FFF78DFE03465AB280
:1013B000FB685A727B6893F88620FB681A73FB6897
:1013C0001B7B002B0CBF01230023DBB21A46FB68FA
:1013D0005A7300BF1037BD4680BD000080B588B08D
:1013E00002AF786039607B6858333B613968786850
:1013F000FFF7BCFF7B6893F86130FB737B6893F861
:101400006E3019463869FFF7A8FE0346BB737B6848
:1014100093F86F3019463869FFF79FFE03467B73D8
:101420007B6893F8703019463869FFF796FE0346DB
:101430003B733B6993F90830002B40F3CF803B6945
:101440001879FA7B7B7B1344DBB25B42DBB25AB286
:101450003B699B7B97F90E10FFF7D2FE03461A46B5
:101460003B691A713B695879FA7B7B7B1344DBB289
:101470005B42DBB25AB23B699B7B97F90E10FFF7D8
:101480008FFE03461A463B695A713B691B79FB750F
:101490003B695B797B75FB7DBB757B7D3B753B69F0
:1014A0009B7B032B52D801A252F823F0BD140008F5
:1014B000D5140008F9140008291500083B6993F9B0
:1014C0000830DAB2BB7D1344BB75FA7B3B7D134415
:1014D0003B753BE0FB7BFA7DD31AFB75FB7D01334B
:1014E000FB75BB7D0133BB753B6993F90830DAB2FC
:1014F0003B7D13443B7529E03B6993F90830DBB22F
:10150000FA7DD31AFB75FB7D0133FB75BB7D01337F
:10151000BB75FB7B7A7DD31A7B757B7D01337B7535
:101520003B7D01333B7511E0FA7BBB7D1344BB75FA
:101530003B6993F90830DBB27A7DD31A7B757B7DEA
:1015400001337B753B7D01333B7500BFB87D7A7DF0
:10155000F97D3B7D00930346786800F098FB0346D5
:10156000002B02D197F90C303AE03B6900229A71C6
:101570003B690022DA717B6893F86A301946386952
:10158000FFF7A1FD0346FB727B6893F86B301946A9
:101590003869FFF798FD0346BB72FB7A00221946B3
:1015A0007868FFF75DFEBB7A012219467868FFF77D
:1015B00057FE01213869FFF786FD0346002BECD169
:1015C0003B6993F9073097F90F209A4200DDD2E783
:1015D00000BF3B691A7B7B6883F8862097F90C3043
:1015E00018461837BD4680BD80B586B000AF78601C
:1015F0000B467B807B681B6D7B617B6917337B614E
:101600007B88FF2B2AD87B88602B07D97B68B3F8AF
:101610007C301A467B6913447B6109E07B88402B50
:1016200006D97B68B3F87A301A467B6913447B612C
:101630007B6901331B78002B4ED07B691B789BB2F2
:101640007A889A4202D17B69023349E07B6901338F
:101650001B781A467B6913447B61E9E77B68B3F822
:101660007E301A467B6913447B617B693B610021B4
:101670003869FFF760FC03461A467B6913447B61B7
:1016800002213869FFF757FC0346FB813B690433AD
:101690003B61FA897B889A42E9D37B691B78FB819D
:1016A000FB891B02FB817B6901331B789AB2FB89A2
:1016B0001343FB81FB89002B10D0FA897B889A4267
:1016C00002D17B6903330BE07B6902331B781A4636
:1016D0007B6913447B61E0E700BF00E000BF0023AB
:1016E00018461837BD4680BD80B584B000AF78601D
:1016F000084611461A460346FB700B46BB7013465C
:101700003B800023FB737B68FA7883F85C207B685E
:10171000BA7883F85D203B8819467868FFF764FF44
:10172000B860BB68002B05D0B9687868FFF756FE33
:101730000346FB73FB7B18461037BD4680BD80B463
:1017400083B000AF78600B46FB707B68FA7883F853
:10175000632000BF0C37BD4680BC704780B582B0A7
:1017600000AF7860084611461A460346FB700B46E8
:10177000BB7013463B807B6893F86630032B33D8ED
:1017800001A252F823F000BF99170008AD17000816
:10179000C1170008D51700087B685B6D786898470B
:1017A00003461A46BB781344BB701DE07B685B6D33
:1017B0007868984703461A46FB789B1AFB7013E03B
:1017C0007B685B6D7868984703461A46BB789B1A1E
:1017D000BB7009E07B685B6D7868984703461A46E2
:1017E000FB781344FB7000BF3B88BA78F9787868BF
:1017F000FFF77AFF034618460837BD4680BD00BF95
:1018000080B586B000AFF8607B600B46FB72134674
:10181000BB72F86800F05FFC0023FB75FB685B6837
:101820007A6812781146F86898470346BB82BB8AEB
:101830004FF6FF72934238D07B6801337B60BB8ADE
:101840004FF6FE729342E9D0BB8ABA7AF97AF86809
:10185000FFF784FF0346FB74FB6893F86630032BA5
:101860001ED801A252F823F0791800088318000846
:101870008D18000897180008FA7AFB7C1344FB7255
:101880000EE0BA7AFB7C1344BB7209E0FA7AFB7C67
:10189000D31AFB7204E0BA7AFB7CD31ABB7200BF86
:1018A000FA7DFB7C1344FB75B8E700BFFB7D18464F
:1018B0001837BD4680BD00BF80B584B000AFF8606A
:1018C0007B600B46FB721346BB72FB68064A5A608C
:1018D000BA7AF97A7B68F868FFF792FF03461846F0
:1018E0001037BD4680BD00BFF120000880B483B032
:1018F00000AF78607B681B6D002B5DD07B6893F92F
:1019000075207B6883F882207B6893F976207B685A
:1019100083F883207B6893F88130002B4DD07B685F
:1019200093F88130012B1CD17B6893F982207B686E
:1019300093F977309A4205DA7B6893F977207B68D0
:1019400083F882207B6893F983207B6893F9783051
:101950009A4232DD7B6893F978207B6883F8832094
:101960002BE07B6893F982301A467B6893F97230DA
:1019700019467B6893F974300B449A420DDA7B6800
:1019800093F97230DAB27B6893F97430DBB21344A6
:10199000DBB25AB27B6883F882207B6893F983209C
:1019A0007B6893F974309A4207DD7B6893F9742061
:1019B0007B6883F8832000E000BF0C37BD4680BC05
:1019C000704780B483B000AF7860002318460C37AE
:1019D000BD4680BC7047000080B483B000AF786023
:1019E0007B68034A5A6500BF0C37BD4680BC704710
:1019F000C319000880B582B000AF786039607B6899
:101A00001B6D3A689A420BD07B683A681A657B680E
:101A1000683339681846FFF7ADFA7868FFF766FF54
:101A200000BF0837BD4680BD80B483B000AF78608A
:101A30000B46FB707B68FA7883F8662000BF0C3792
:101A4000BD4680BC704780B487B000AFF860B96015
:101A500011461A460B46FB711346BB71FB681B7897
:101A6000FB75FB7DBB75BB681A78BB7D1344BB75EA
:101A7000FA7DBB7D9A420BD9FA7DBB799A4205D299
:101A8000BB79BB75BB7D013BBB7501E0FB79FB7589
:101A9000FA7DBB799A4201D300231CE0BA7DFB7921
:101AA0009A4201D8002316E0FA7DFB799A4201D2CE
:101AB000FB79FB75BA7DBB799A4201D9BB79BB75BD
:101AC000FB68FA7D1A70BA7DFB7DD31ABB75BB68C3
:101AD000BA7D1A70012318461C37BD4680BC70477A
:101AE00090B585B002AF7860084611461A460346A5
:101AF000FB700B46BB7013467B707B6893F84030DD
:101B0000BA78D31ABB707B681C6B7878BA78F9788E
:101B10003B7E009303467868A04700BF0C37BD4664
:101B200090BD90B585B002AF7860084611461A4660
:101B30000346FB700B46BB7013467B707B6893F8C3
:101B40008030002B6DD07B78002B6AD07B78012B06
:101B500018D93B7E022B09D1FA787B78D31ADBB2F5
:101B6000FB70FB780133DBB2FB700BE03B7E032B99
:101B700008D1BA787B78D31ADBB2BB70BB7801335B
:101B8000DBB2BB703B7E03F001033B763B7E002B58
:101B900019D17B6893F84720BB789A4238D87B6884
:101BA00093F84820BB789A4234D97B6893F8452053
:101BB0007B6893F84630791CF81CFFF744FF034616
:101BC000002B19D12DE07B6893F84520FB789A42D1
:101BD00022D87B6893F84620FB789A421ED97B680E
:101BE00093F847207B6893F84830791CB81CFFF7BE
:101BF0002AFF0346002B13D07B685B6B9C68F97847
:101C0000BA7878783B7E009303467868A04708E06E
:101C100000BF06E000BF04E000BF02E000BF00E03C
:101C200000BF0C37BD4690BD90B482B000AF0446F3
:101C3000084611461A462346FB710346BB710B4604
:101C40007B7113463B717A79BB799A420DD23A790E
:101C5000FB799A4201D9012314E07A793B799A42BF
:101C600001D901230EE000230CE03A79FB799A4276
:101C700007D97A793B799A4201D9012302E00023FE
:101C800000E0002318460837BD4690BC704780B579
:101C900082B000AF7860084611461A460346FB70D2
:101CA0000B46BB7013467B707B6893F847007B68DC
:101CB00093F848103B7CBA78FFF7B6FF0346002B39
:101CC00001D100230AE07B6893F845007B6893F814
:101CD00046107B78FA78FFF7A7FF034618460837C7
:101CE000BD4680BD80B487B000AF7860084611461D
:101CF0001A460346FB700B46BB7013467B707B682D
:101D00001B681B7CBB74FB787B747B7C03F0070334
:101D10007B748023FB74FA7C7B7C42FA03F3FB74B4
:101D2000BB78FB81BB7C9BB2FA8902FB03F3FB818E
:101D3000FB78DB08DBB29AB2FB891344FB817B683A
:101D40009B6B7B61FB897A6913447B6197F8203038
:101D5000002B29D17B6893F88630012B06D87B694C
:101D60001A78FB7C1343DAB27B691A707B6893F8AC
:101D70008630012B06D07B691A78FB7C5340DAB29F
:101D80007B691A70FB7C5B08FB74FB7C002B04D125
:101D90008023FB747B6901337B617B78013B7B7023
:101DA0007B78002BD6D121E07B6893F88630012B1D
:101DB00006D87B691A78FB7C1343DAB27B691A7008
:101DC0007B6893F88630012B06D07B691A78FB7C00
:101DD0005340DAB27B691A70BB7C7A6913447B6129
:101DE0007B78013B7B707B78002BDDD100BF1C37FB
:101DF000BD4680BC704780B582B000AF78607B681C
:101E0000002283F849207B68002283F84B207B68FE
:101E1000FF2283F84A207B68FF2283F84C207B68EE
:101E20005B6B5B687868984700BF0837BD4680BD2C
:101E300080B584B000AFF860B9603B601346FB71B9
:101E4000FB6800221A65FB683A681A63FB68BA6887
:101E50009A63FB68FA7983F83C20FB68002283F8D8
:101E60003D20FB68002283F86320FB68002283F892
:101E70008520FB68012283F88620FB68012283F815
:101E80008720FB68BA695A63FB685B6B1B68F8685C
:101E90009847F868FFF7AFFFF868FFF79DFDFB680C
:101EA000002283F8662000BF1037BD4680BD80B495
:101EB00085B000AF78607B681B68BB607B6893F877
:101EC0003C30FB73FB7BDB00FB737B68FA7B83F8A6
:101ED0003F20BB681B7CFB73FB7B1F2B01D91F239F
:101EE000FB73FB7BDB00FB737B68FA7B83F83E2094
:101EF0007B6893F83D30FB73FB7BDB00FB737B68F7
:101F0000FA7B83F840207B6893F83C30FB73FB7BC3
:101F10007A6892F83D201344BA68527C934206DDF9
:101F2000BB685A7C7B6893F83D30D31AFB73FB7B0C
:101F3000DB00FB737B6893F840207B6883F84120CB
:101F40007B6893F841207B6883F842207B6893F894
:101F50004220FB7B1344DAB27B6883F842207B6823
:101F6000F02283F84320BB689B8AF02B05D8BB681E
:101F70009B8ADAB27B6883F84320BB68DB8ADAB2DB
:101F80007B6883F8442000BF1437BD4680BC70478F
:101F900080B584B002AF78607B6893F849107B68A5
:101FA00093F84B207B6893F84A007B6893F84C3099
:101FB000009303467868FFF76AFE0346002B04D1BE
:101FC0007B68002283F880203BE07B68012283F855
:101FD00080207B6893F845207B6893F849309A42CB
:101FE00005D27B6893F849207B6883F845207B689D
:101FF00093F846207B6893F84A309A4205D97B686B
:1020000093F84A207B6883F846207B6893F8472042
:102010007B6893F84B309A4205D27B6893F84B204B
:102020007B6883F847207B6893F848207B6893F8A7
:102030004C309A4205D97B6893F84C207B6883F832
:10204000482000BF0837BD4680BD80B582B000AFD4
:1020500078607868FFF72BFF00BF0837BD4680BD6A
:1020600080B582B000AF78607B68002283F845209D
:102070007B6893F83E207B6883F846207B6893F862
:1020800041207B6883F847207B6893F842207B6877
:1020900083F848207868FFF77BFF00BF0837BD460C
:1020A00080BD80B584B002AF7860084611461A46FC
:1020B0000346FB700B46BB7013467B707878BA788A
:1020C000F9783B7C009303467868FFF709FD00BF71
:1020D0000837BD4680BD80B483B000AF78607B68B0
:1020E000002283F8272000BF0C37BD4680BC704714
:1020F00080B483B000AF78600B46FB70FB78002B98
:1021000002D0FB780A2B02D14FF6FF736EE07B689A
:1021100093F82730002B45D1FB78FB2B08D97B683F
:10212000052283F82720FB7803F00103FB7032E0DF
:10213000FB78F72B08D97B68042283F82720FB78EB
:1021400003F00303FB7026E0FB78EF2B08D97B68D4
:10215000032283F82720FB7803F00703FB701AE0C3
:10216000FB78DF2B08D97B68022283F82720FB78D5
:1021700003F00F03FB700EE0FB78BF2B08D97B68E0
:10218000012283F82720FB7803F01F03FB7002E095
:10219000FB789BB22AE0FB789AB27B681A844FF6F0
:1021A000FE7323E07B6893F82730013BDAB27B684B
:1021B00083F827207B681B8C9B019AB27B681A846A
:1021C000FB7803F03F03FB707B681A8CFB789BB2B3
:1021D00013439AB27B681A847B6893F82730002BEC
:1021E00002D04FF6FE7301E07B681B8C18460C375B
:1021F000BD4680BC704790B585B000AFF8600B4617
:102200007A60FB72FB681C69FA7A7B681721F868B0
:10221000A047034618461437BD4690BD80B582B02E
:1022200000AF78600B46FB70FB1C1A4601217868F2
:10223000FFF7E1FF034618460837BD4680BD0000A2
:1022400090B589B000AFF8607B600B46FB72134617
:10225000BB72FB681B681B7B03F00103FB75FB7DF6
:10226000C3F10103BB75FB7A143B0C2B00F2A48075
:1022700001A252F823F000BF3B230008B923000855
:10228000B9230008AD220008712300089523000837
:10229000B9230008B9230008B9230008B9230008AE
:1022A000B9230008B9230008632300087B68BB61D9
:1022B0003FE0BB691B78BB77BB690133BB61BB7A6D
:1022C000013BBB720023FB7730E097F91E30002BF7
:1022D00005DA01224121F86800F011FB04E0002238
:1022E0004121F86800F00BFBBB7F5B00BB77BB7D37
:1022F0001A464021F86800F002FBFB681B689B79D6
:102300001A462C21F86800F0FAFAFB7D1A464021A3
:10231000F86800F0F4FAFB681B68DB791A462C2198
:10232000F86800F0ECFAFB7F0133FB77FB7F072BAB
:10233000CBD9BB7A002BBCD140E0FB681B685B7833
:102340001A464921F86800F0DAFAFB681B681B7B23
:1023500003F00103DBB21A464021F86800F0CFFA1F
:102360002CE0BB7A1A464A21F86800F0C8FA25E04A
:10237000FB681B681B781A464921F86800F0BFFA11
:10238000FB685C69FB681B689A7800232C21F8685D
:10239000A04713E0FB685C69FB681B68DA780023E0
:1023A0002C21F868A047FB681B685B781A46492116
:1023B000F86800F0A4FA01E0002300E001231846C9
:1023C0002437BD4690BD00BF90B583B000AF7860A4
:1023D0000B46FB707B68DC68FA780023152178686F
:1023E000A047034618460C37BD4690BD90B585B052
:1023F00000AFF8600B467A60FB72FB68DC68FA7A23
:102400007B681721F868A047034618461437BD4675
:1024100090BD90B583B000AF78607B68DC68002326
:10242000002218217868A047034618460C37BD469D
:1024300090BD90B583B000AF78607B68DC68002306
:10244000002219217868A047034618460C37BD467C
:1024500090BD90B585B000AF786039603B681B785F
:10246000FB733B6801333B60FB7B172B17D0172BAB
:1024700002DC152B37DB04E0192B1EDDFE2B24D0EC
:1024800031E03B681B78BB737B68DC68BA7BF97B07
:1024900000237868A0473B6801333B6022E03B683B
:1024A0001B78BB7307F10E031A4601217868FFF70A
:1024B0009DFF3B6801333B6014E07B68DC68F97B7F
:1024C000002300227868A0470CE03B681B78BB73B0
:1024D000BB7B1A462921786800F011FA3B6801336A
:1024E0003B6000BFBAE700BF1437BD4690BD000097
:1024F00090B589B000AFF8607B600B46FB72134665
:10250000BB72FB7A143B052B00F2A88001A252F8A3
:1025100023F000BF4B2600082D2500087325000876
:102520009B2500084B2600084B260008F821F86878
:10253000FFF774FE01222C21F86800F0E0F9BB7A65
:1025400023F00F03DBB21946F868FFF767FE01229C
:102550002C21F86800F0D3F9BB7A1B01DBB21946D5
:10256000F868FFF75BFE01222C21F86800F0C7F93C
:1025700076E0F821F868FFF751FEBB7A23F00F03ED
:10258000DBB21946F868FFF749FEBB7A1B01DBB2E4
:102590001946F868FFF742FE62E0FA21F868FFF793
:1025A0003DFE01222C21F86800F0A9F97B68FB614F
:1025B00026E00823FB762D4B7B61FB695A1CFA61F0
:1025C0001B78FB747B695A1C7A61FA7C22F00F023B
:1025D000D2B21A70FB7C1B01FB747B695A1C7A61B6
:1025E000FA7C1A70FB7E013BFB76FB7E002BE4D16C
:1025F000BB7A083BBB721D4A1021F868FFF7FBFD50
:10260000BB7A072BD5D817E0FB691B78FB74FB7CE2
:1026100023F00F03DBB21946F868FFF7FFFDFB7CE0
:102620001B01DBB21946F868FFF7F8FDFB690133BF
:10263000FB61BB7A013BBB72BB7A002BE4D1012268
:102640002C21F86800F05BF90AE0FB681C69BA7A93
:10265000F97A7B68F868A047034602E0002300E0AF
:10266000012318462437BD4690BD00BFC01100208D
:1026700080B588B000AFF8607B600B46FB721346F4
:10268000BB72FB7A0B2B0BD00F2B16D00A2B69D108
:10269000F86800F0A8F83749F868FFF7DAFE63E059
:1026A000BB7A002B04D13449F868FFF7D2FE5BE017
:1026B0003249F868FFF7CDFE56E07B689B79BB771F
:1026C000BB7FDB00BB777B685B79FB77FB7F5B08BD
:1026D000FB77BB7F1F2B05D9BB7F203BBB77FB7FE5
:1026E0000833FB77F868FFF794FE7B681B79FB756E
:1026F0007B681B68BB613E21F868FFF765FE3E21E1
:10270000F868FFF761FE00237B7724E0BA7F7B7FC8
:102710001344DBB25BB263F07F035BB2DBB21946FA
:10272000F868FFF751FEFB7F63F07F03DBB21946C9
:10273000F868FFF749FE7B681B79FB75FB7DBA697A
:102740001946F868FFF752FEFB7DBA691344BB6176
:102750007B7F01337B777B7F072BD7D9F868FFF727
:1027600068FE01E0002300E0012318462037BD4643
:1027700080BD00BFE4B90008F8B9000800BA00083D
:1027800080B584B000AFF8607B600B46FB721346E7
:10279000BB72FB7A092B06D10849F86800F010F8E3
:1027A00000BF012306E0BA7AF97A7B68F868FFF780
:1027B0005FFF034618461037BD4680BD0CBA0008BF
:1027C00080B483B000AF786039607B683A681A6083
:1027D0007B681B689A7C7B6883F8222000BF0C37DB
:1027E000BD4680BC704790B583B000AF78607B6811
:1027F0005C690023002228217868A0477B68DC6898
:102800000023002214217868A04701224B21786818
:1028100000F075F87B681B681B791A4629217868D7
:1028200000F06DF800224B21786800F068F87B68B2
:102830001B681B791A462921786800F060F801228C
:102840004B21786800F05BF87B681B685B791A465F
:102850002921786800F053F800BF0C37BD4690BDC1
:1028600090B585B000AF7860084611461A46034619
:10287000FB700B46BB7013467B70FB787B73BB7899
:10288000BB737B783B733B6ABB607B689C6807F1DA
:10289000080301220F217868A04703461846143721
:1028A000BD4690BD90B583B000AF78607B689C68F2
:1028B0000023002209217868A04700BF0C37BD46DD
:1028C00090BD90B583B000AF78607B689C680023B2
:1028D00000220A217868A04700BF0C37BD4690BD92
:1028E00090B583B000AF78607B689C6800230022BD
:1028F00010217868A04700BF0C37BD4690BD90B549
:1029000083B000AF78600B46FB701346BB707B68EA
:102910005C69BA78F97800237868A04700BF0C3763
:10292000BD4690BD80B485B000AFF8607B600B46BB
:10293000FB721346BB72002318461437BD4680BC99
:102940007047000080B483B000AF78607B680022DD
:102950001A607B68114A9A607B68104ADA607B686B
:102960000E4A1A617B680D4A5A617B68002283F81F
:1029700023207B68002283F826207B68002283F8CE
:1029800027207B68FF2283F824207B68FF2283F8BE
:10299000292000BF0C37BD4680BC704725290008A0
:1029A00080B584B000AFF860B9607A603B60F868C9
:1029B000FFF7C8FFFB68BA689A60FB687A68DA605C
:1029C000FB683A681A61FB68BA695A61F868FFF7F0
:1029D00069FF00BF1037BD4680BD2DE9F0430026DA
:1029E0004FF00F0E43F6F8789C46036847684CFAA0
:1029F00006F4E4071BD5072E94BF9946B946B4B236
:102A00008BBF4444A400A400A4B288BFA4B20EFAB1
:102A100004F529EA0509A51C02FA05F501FA04F4F2
:102A20002C4344EA0904082E2CBF274623460136CE
:102A3000102EDCD103604760BDE8F083034A1368C1
:102A400023F0E06319430143116070470400014023
:102A5000024A136843F0807313607047001002400D
:102A6000062822D8DFE800F004090E13181D1F0005
:102A70000F4B1868C0F3406070470D4B1868C0F3E7
:102A8000C06070470A4B1868C0F340707047084B2D
:102A90001868C0F340407047054B1868C0F3400009
:102AA0007047044BF9E7044BF7E70020704700BF7D
:102AB000001002402010024024100240024608B5D7
:102AC0001046FFF7CDFF0028FAD008BD06280CD825
:102AD000DFE800F004060C11161B1D00FFF7B8BF5D
:102AE0000C4A136843F0806313607047094A136807
:102AF00043F08053F8E7074A136843F48033F3E761
:102B0000044A136843F00103EEE7034AF9E7034A76
:102B1000F7E700BF001002402010024024100240DE
:102B2000034A136823F0030318431060704700BF83
:102B300004100240034A136823F4701343EA8040F0
:102B40001060704704100240034A136823F4803376
:102B500043EA00401060704704100240034A1368C3
:102B600023F4003343EA40401060704704100240F1
:102B7000034A136823F4404343EA803010607047EF
:102B800004100240034A136823F4605343EAC02050
:102B90001060704704100240034A136823F4E06396
:102BA00043EA00201060704704100240034A136893
:102BB00023F0F00343EA0010106070470410024055
:102BC00008B50420FFF782FF0420FFF777FF0020FD
:102BD000FFF7A6FF0320FFF779FF0320FFF76EFF43
:102BE0000120FFF79DFF0020FFF7E0FF0320FFF724
:102BF000BFFF0420FFF7D0FF0020FFF7C3FF022034
:102C000000F0EAF80720FFF795FF0120FFF79CFF8F
:102C10000020FFF7A3FFFFF71BFF0020FFF74EFF89
:102C20000220FFF77DFF044B044A05491360054A63
:102C30001160054A136008BD00A24A040C00002080
:102C4000005125021000002014000020034B1868DA
:102C500004331B6843EA0040704700BF1828004057
:102C6000012809D002D302280BD07047074A136805
:102C700023F0010313607047044A136823F0020332
:102C8000F8E7024A136823F00403F3E7042800403E
:102C900001617047090401617047C36801EA0302DA
:102CA00021EA030141EA0241016170474CF6CC423E
:102CB000014B1A60704700BF00300040024B18689B
:102CC000C0F34000704700BF0C300040024B186852
:102CD00000F00100704700BF0C300040C20008B592
:102CE00021D00023501E5FEA103CD9B203F101034A
:102CF00017D1062919D80246FFF7E8FF0028FBD1B3
:102D000045F255500B4B18600B4801601946FFF710
:102D1000D5FF0028FBD145F255530B60074B1A60D5
:102D200008BD5208DEE71146E6E740F6FF720621CD
:102D3000E2E700BF003000400430004008300040AF
:102D40004AF6AA22014B1A60704700BF00300040CB
:102D5000C3681943C160704703690B4214BF012067
:102D600000207047C9430161704710B504681343E0
:102D700024F45C740B432343036010BD036801F427
:102D8000407123F440730360036819430160704786
:102D9000036843F0010303607047436823F0700346
:102DA0004360436819434160704781627047C16264
:102DB0007047406A70474068C0F308007047430995
:102DC00000F01F02012003F1804303F5043319686A
:102DD0009040084318607047034A136823F00703C4
:102DE00018431060704700BF002002402DE9F041F9
:102DF0001E4603680546884617469847069BC0F856
:102E0000DC50C360079BC0E900870361BDF8203038
:102E100086608382064B0367064BC366064B836658
:102E20000023C0E93233C0E93433BDE8F08100BF8C
:102E30004D300008AD3000082F310008D0F8DC30EC
:102E40005B6A184710B4D0F8DC40A468A44610BCF4
:102E5000604737B5002504460368C582DB792A46FA
:102E600029460095FFF7EEFFD4F8DC3029465B6871
:102E700020469847E3691BB103B0BDE830401847CE
:102E800003B030BD10B4D0F8DC40E469A44610BCF7
:102E9000604710B4D0F8DC40246AA44610BC6047F8
:102EA000D0F8DC301B691847D0F8DC309B69184734
:102EB000D0F8DC305B69184710B503680446D9794F
:102EC000838F826B99420FD20B460021FFF7DAFF06
:102ED000022384F82C302368A26BD979A38F0A448B
:102EE0005B1AA263A38710BD0021FFF7CBFF94F804
:102EF0004430002B0CBF0323022384F82C30002322
:102F000084F84430A387A363EDE72DE9F74F044627
:102F10000E4600F1480500F1680B00F1380700F19A
:102F20003C0800F1400AD5F80090B9F1000F08D034
:102F3000337869792A790B409A420BD008355D4580
:102F4000F1D143463A463146204603B0BDE8F04F42
:102F500000F0A4BBCDF800A043463A4631462046D7
:102F6000C8470128EAD803B0BDE8F08F10B50122A8
:102F700000210446FFF794FF002384F82C3010BD95
:102F800070B50368828FC48EDB79A41A9C42A8BFF7
:102F90001C46816BA6B20A44334600210546FFF762
:102FA00078FF864205D02846FFF7E0FF4FF0FF305C
:102FB00070BDAB8FA0B21E44AE87F9E738B5036988
:102FC000044683638B79CA790D4643EA02238387DB
:102FD000FFF79BFF10B3EB88BBB1A28F2168934230
:102FE000C9790ED97AB192FBF1F301FB1323B3FA3D
:102FF00083F35B0984F844302046BDE83840FFF78E
:103000005BBF0023F6E71346F4E71A46194620464D
:10301000FFF738FF042384F82C3038BD2046BDE884
:103020003840FFF7A3BF70B5002600EBC605AC6CB7
:103030002CB10136042EF8D14FF0FF3070BD85F869
:103040004C1085F84D20AB642046F7E770B500259D
:10305000044605640122294600F13006FFF728FFE7
:10306000E38E2BB931462046BDE87040FFF7A6BF7E
:1030700094F93020002AF5DBA28A9A4204D2204635
:10308000BDE87040FFF772BF2269A587A26322687E
:103090002046D2799A4234BF05230623002284F8C1
:1030A0002C301146BDE87040FFF702BF90F82C307D
:1030B00010B5062B044612D0072B27D0052B21D1A3
:1030C000FFF75EFF002809DBA28FE38E9B1A2268C0
:1030D000D279934202DC062384F82C3010BDFFF72E
:1030E0004FFF0028FADB04F130012046FFF70DFF07
:1030F00038B1002320461A461946FFF7C3FE0423C1
:10310000EAE72046BDE81040FFF730BF00231A462B
:103110001946FFF7BEFE002384F82C30236C1BB148
:1031200004F130012046984700232364D6E790F845
:103130002C3010B5032B044607D0042B0ED0022BE5
:1031400023D1BDE81040FFF7B7BE0723BDE810400C
:10315000002280F82C301146FFF7AABE036C13B191
:1031600000F13001984794F8303053B994F8313079
:10317000052B06D1618ED4F8DC30C9B25B682046DD
:103180009847002384F82C3010BDBDE81040FFF7AD
:10319000EDBEF8B50D464988044679B103680D26A1
:1031A000587C0023984201D80020F8BD626806FBD5
:1031B000032252798A4203D00133F3E74FF0FF3301
:1031C0000133DBB2E3754BB9D4F8DC302046DB6861
:1031D0009847D4F8C8309BB90120E6E70D22534345
:1031E00062680D3B13440022104619799142EBD9D5
:1031F000D3F809101601715801B108700132F4E7D3
:10320000002304F1C806A3642365A365236604F1C3
:10321000D80756F8043B13B1698820469847B7424F
:10322000F7D1D9E719881268012984BF01211980D3
:10323000C37D2BB141680D2000FB031313F8083C3C
:1032400013700120704730B50D24C57D40686C4374
:103250000D3C04448D88207985420CD201201880D1
:103260008B88D4F809001B011B5803B11B7801207F
:103270001268137030BD0020FCE719880120022974
:1032800084BF02211980002311680B7012685370EB
:10329000704710B514461A88022A84BF02221A8089
:1032A0008988C9B2FFF700FE003018BF0120002254
:1032B00023681870236801205A7010BD08B58988EA
:1032C0000122C9B2FFF7ECFD012008BD08B58988CD
:1032D0000022C9B2FFF7E4FD012008BD10B50B784C
:1032E00073B94C887F2C0BD8D0F8DC30847593F8F8
:1032F00030201AB149885B68C9B29847012000E0C4
:10330000002010BD0D2270B51C46C37D5A43436892
:103310000D3A13441D798A88954218D9D3F809507B
:103320001201AE184B8836799E4210D9AA5852B174
:103330001370D0F8D83013B14A8889889847002391
:103340000120238070BD002BF3D01046FAE7002047
:10335000F8E72DE9F04F4D881F462B0A022B89B064
:10336000164611D0032B00F0E580012B40F01A81A6
:1033700002683988326012788A4228BF0A463A8049
:10338000012009B0BDE8F08F0D26EDB26E43036950
:10339000D0F80480136018F806503C880193A542C9
:1033A00028BF254608EB06032A46194601980293D2
:1033B00000F00AFE0022019B641B18F806602B44F3
:1033C000A4B20492029A1179BDF81020914203D858
:1033D000019B5E803D80D3E7049A12010792029A16
:1033E0000799D2F809200A44D2F80890B9F1000FE1
:1033F00014D099F800801846A04528BFA046494639
:10340000424600F0E1FD034699F80020A4EB0804D1
:10341000454416444344A4B2ADB2B6B2002205926C
:10342000029A0799D2F809200A441079BDF81410BD
:10343000884202D8049A0132C3E715200599D2F8D0
:103440000CA000FB01F91AF809800AEB090BA04552
:1034500028BFA04659464246184600F0B5FD03462F
:103460001AF80920DBF80D10A4EB080445441644B3
:103470004344A4B2ADB2B6B2A9B1DBF8118018468C
:10348000A045A8BFA0461FFA88F94A4600F09CFD57
:103490000346DBF81120A4EB09044D4416444B44C9
:1034A000A4B2ADB2B6B24FF000099BF804101FFAF7
:1034B00089F2914202D8059A0132B0E7DBF809207F
:1034C000C9EB091A069252440392069A039912F81C
:1034D0000A801846A04528BFA046424600F074FD69
:1034E0000346069AA4EB080412F80A204544164441
:1034F000039A4344D2F80710A4B2ADB2B6B2B1B148
:10350000D2F80B801846A045A8BFA0461FFA88FA3B
:10351000524600F059FD0346039AA4EB0A04D2F880
:103520000B20554416445344A4B2ADB2B6B209F1CF
:103530000109BAE715F0FF0504690DD10923A3704D
:103540000423E37023703B88042B28BF04233B80B3
:1035500003236370346013E783681BB3C268013DC3
:10356000AA421FDD40F20942898891421AD153F8DC
:103570002550284600F03EFE01304000C0B22070C9
:103580003B882946984228BF184638803B884A1B0A
:103590005B08013B9342DBDD11F8013B04EB420287
:1035A0005380F3E70020ECE619880120022984BF4C
:1035B00002211980002311680B7012685370704744
:1035C000002210B500F1C80454F8043B3BB18B4213
:1035D00008D00132042AF7D14FF0FF3010BD32324B
:1035E00040F822100020F9E710B44C78092C12D8CA
:1035F000DFE804F00D111111110F0B110905074C33
:10360000A44610BC6047064CFAE7064CF8E7064CA7
:10361000F6E7064CF4E7002010BC70479331000831
:1036200025320008533300087B320008DD320008E1
:1036300010B44C780A2C08D00B2C02D03CB9054CA5
:1036400000E0054CA44610BC6047044CFAE700209B
:1036500010BC7047A9350008053300084732000840
:1036600010B44C78012C05D010D3032C07D00020C7
:1036700010BC70474C88002CF9D1054C03E04C88F5
:10368000002CF4D1034CA44610BC6047024CFAE76E
:10369000CD320008BD3200089332000810B40C7817
:1036A00014F0600F06D104F01F04012C08D004D3DD
:1036B000022C08D0002010BC704710BCFFF794BF4C
:1036C00010BCFFF7B5BF10BCFFF7CABF08B540F28A
:1036D0009730FFF774FB0023054A064913600B601F
:1036E00041F80C3C4FF41C430348136008BD00BF75
:1036F000405C0040505C0040D01100200132023993
:10370000521001EB4202914200D1704731F8023F62
:10371000043040F8043CF6E7F0B502F00106520828
:103720000D46044613462BB91EB111F8223000F89D
:103730001230F0BD35F8047B013B24F8027B9BB2CC
:10374000F1E7FEE770470000002238B51849194C30
:1037500019485318834217D30021184A934217D3AC
:10376000174A184C1368184D43F400731360AC42A9
:1037700011D3164C164DAC4211D3FCF791FF154CEA
:10378000154DAC420FD338BD135953500432E0E706
:1037900019600433E2E754F8043B9847E7E754F82C
:1037A000043B9847E7E754F8043B9847E9E700BF34
:1037B0000000002054BC0008280A00205C130020F0
:1037C00014ED00E04CBC00084CBC00084CBC0008E8
:1037D0004CBC00084CBC00084CBC0008024B20F05C
:1037E0007F401860704700BF14E000E0024B18688B
:1037F00020F07F40704700BF14E000E0024B1868E3
:1038000020F07F40704700BF18E000E0044A00F05D
:103810000400136823F0040303431360704700BFE0
:1038200010E000E0024A136843F00203136070479F
:1038300010E000E0024A136843F001031360704790
:1038400010E000E0012243099B0003F1604300F017
:103850001F0003F5614302FA00F018607047000092
:10386000432893BF00F16040044B00F00F0000F5C7
:1038700064408CBFC1540170704700BF14ED00E07C
:10388000024B41F080011960704700BF4C5C004062
:103890003E2A11D9013AC2F34412501C400142F0B1
:1038A0002002084B92021B6892B29BB203EBC1014B
:1038B000054B49005A50704701325208500080B2FF
:1038C000EFE700BF505C00400C600040F7B50546D4
:1038D0004FF0C060414C01F07F06CDE90040B400DC
:1038E00004F1804404F5B84420680DF1080C20F47C
:1038F000E04020F07F00304380B2206020680CEB75
:10390000420220F4EC4032F8082C20F07000104302
:1039100049B280B20029089F2060DFF8C8C04FEA92
:10392000C60E2ADB4EB3DCF80020298B92B29644F7
:103930002B4A4FEA4E0E42F80E1028461A463146E0
:10394000FFF7A6FF002F43D1236823F4415323F050
:1039500030031B041B0C2360236823F4804323F0F3
:1039600070039BB283F4405343F4004343F080035D
:1039700023602B8B1844288328E0DCF80020288B58
:1039800092B27244520002F1804202F5C0421060CD
:103990001FB10C2202FB065297662268184422F4DB
:1039A000E04222F030021204120C22602268002948
:1039B00022F4E04222F0400292B282F0200242F46D
:1039C000004242F0800222602883ACDA03B0F0BDEE
:1039D0000C2303FB0656F766B6E700BF000200049F
:1039E00008600040505C004048F2800170B50B4A0E
:1039F0000B4E0C4D0C4C136833400B439BB21360C1
:103A000013682B400B439BB242F8043BA242F2D115
:103A10000368DB7920335B00038370BD045C0040E6
:103A2000BF8FFFFF8FBFFFFF205C004010B589B93B
:103A3000002A0CBF202410242A48036823F4E04302
:103A400023F0400363401BB243F4004343F0800380
:103A50009BB203600B0623D5002A0CBF2022102244
:103A600001F07F014FEA810101F1804101F5B84188
:103A70000B6823F4E04323F0400383EA02031BB204
:103A800043F4004343F080039BB20B6007D10B6803
:103A900023F4E04323F030031B041B0C0B6010BD28
:103AA000890001F1804101F5B8413AB90B6823F46E
:103AB000415323F030031B041B0C0B60002A0CBF86
:103AC0004FF440524FF480520B6823F4804323F0AC
:103AD000700353401BB243F4004343F080039BB296
:103AE000DCE700BF005C00400B060ED501F07F0153
:103AF000890001F1804101F5B841086800F030000B
:103B0000102814BF002001207047890001F1804176
:103B100001F5B841086800F44050B0F5805FF0E767
:103B20000B0612D40B4B0C485A54890001F180410A
:103B300001F5B8410B6803409BB23AB183F40053DE
:103B400043F4004343F080030B60704783F4405319
:103B5000F6E700BFCC1200208FBFFFFF01F07F010E
:103B6000F8B58C0004F1804404F5B8441D46236880
:103B7000944603F03003302B28D0154FCE003A681E
:103B8000614692B23244520002F1804202F5C042D4
:103B900010882A46400000F1804000F5C040FFF741
:103BA000ADFD39680B4B89B20E4476009D512268F9
:103BB00022F4E04222F0400292B282F0300242F45B
:103BC000004242F0800222602846F8BD0025FBE753
:103BD000505C004004600040F8B58C0004F1804463
:103BE00004F5B8441D4623680E4603F44053B3F56C
:103BF000405F10463AD01E49F2000B681D4F9BB241
:103C000013445B00FB58C3F30903AB4206DA0B68AD
:103C10009BB213445B00FD58C5F309050B689BB2CA
:103C20001A44154B5200995A2A46490001F1804125
:103C300001F5C041FFF770FD236823F0F0031B0579
:103C40001B0D43F0800323600C4B9B5D63B922681E
:103C500022F4804222F0700292B282F4405242F486
:103C6000004242F0800222602846F8BD0025FBE7B2
:103C7000505C00400C60004008600040CC12002006
:103C8000374A2DE9F0411368054613F4806F9FB25F
:103C9000164608D0BDE8F0414FF6FF3313604023CD
:103CA0000383FFF7D6B81C041FD503F00F084FEAB3
:103CB000880404F1804413F0100304F5B84436D0AE
:103CC000236819053CD5082300F130024146FFF76F
:103CD00083FF022308EB480213441A3355F82330BC
:103CE000002B2FD04146284698473A0505D54FF27C
:103CF000FF7333602B6A03B19847FB0405D54EF67A
:103D0000FF7333606B6A03B1984717F4007F154C5B
:103D100005D04FF6FF52AB6A3260E3B19847AB6A09
:103D2000CBB1236843F400732360BDE8F0812268BF
:103D300022F0F0021205120D42F400422260C9E79F
:103D40000123C7E7236823F0F0031B051B0D43F095
:103D500080032360C9E7236823F40073E4E700BF0E
:103D6000445C0040405C0040014B1868704700BF55
:103D700018000020024B19687C3100F003B800BF26
:103D8000180000202DE9F8430C46074600F024FFF8
:103D900021460646384600F023FF0446406900F2FB
:103DA0006C7818F0030F34D04FEAE8734FF4C87200
:103DB000804D85FB0815C3EBE51502FB1585002D2D
:103DC0000CBF302500257C4B1D4400F009FB00F0A2
:103DD00013FB7A4B1B6853B37368434540F09F80D5
:103DE000D7E90001D6E908893368002B40F0A180AB
:103DF000404571EB090380F2A680D6E91223904278
:103E000071EB0303B4BF01230023236210DA326D88
:103E10000FE06421674A4FEAE87382FB0802C3EBB4
:103E2000621201FB1282002AC0D03025CBE7236248
:103E3000B26A4FF46166624BD01783FB02131344DE
:103E4000DB12191A06FB11215E4E1B1A86FB012696
:103E5000CA170E44C2EB6616C6EB0610A268A1EBA9
:103E600080012068D31A6268411A921B3B2984E8BA
:103E70000E004DDD01323C39C4E900123B2A40DD21
:103E800001333C3AC4E90123172B1DDDD4E9062197
:103E90000132062AC8BF0022A261E268183B013243
:103EA0000131C4E90232E161216955F821309A42B9
:103EB00005DD0131D21A0C29E26047D0216100F002
:103EC00095FA2046BDE8F883002BF8DAD4E90621FC
:103ED000013A48BF0622A261E26801391833013A6B
:103EE000E161C4E90232002AE9D12369013B37D4F8
:103EF00023619B00EB58E36000F078FA2046BDE8B0
:103F0000F883002AC0DA013B3C32C4E90123BBE755
:103F10000029B3DA013A3C31C4E90012AEE7404669
:103F200000F096F900287FF45BAF4FF0FF33236277
:103F30007EE7404571EB09030FDBD6E9122390427F
:103F400071EB030309DA0123236260E7002263694E
:103F5000226101336361E261B1E70023236267E715
:103F60000B2263692261591E03F26B728B07616138
:103F700011D0D3174FF4C8700E4981FB0261C3EB17
:103F8000E11300FB1323B3FA83F35B0903F5B67265
:103F90002C23E261AEE764200649D31781FB02615E
:103FA000C3EB611100FB11210029E3D040F26D1237
:103FB000EEE700BF1F85EB5158BA0008F012002051
:103FC000C5B3A29189888888844641EA000313F02A
:103FD000030349D1403A23D30B6803604B68436025
:103FE0008B688360CB68C3600B6903614B69436175
:103FF0008B698361CB69C3610B6A03624B6A43625D
:104000008B6A8362CB6AC3620B6B03634B6B436344
:104010008B6B8363CB6BC36340304031403ADBD260
:1040200030320BD30B6803604B6843608B6883604E
:10403000CB68C36010301031103AF3D20C3205D384
:1040400051F8043B40F8043B043AF9D2043208D05A
:10405000D2071CBF11F8013B00F8013B01D30B88CC
:1040600003806046704700BF082A13D38B07B1D086
:1040700010F00303AED0C3F10403D21ADB071CBF58
:1040800011F8013B00F8013BA4D331F8023B20F8C2
:10409000023B9FE7043AD9D3013A11F8013B00F8FB
:1040A000013BF9D20B7803704B7843708B788370A7
:1040B00060467047F0B4860743D0541E002A3ED0B5
:1040C000CAB2034602E014F1FF3438D303F8012BDF
:1040D0009D07F8D1032C2BD9CDB245EA05250F2C2D
:1040E00045EA054516D9A4F110073F0903F120065A
:1040F00006EB071603F1100242E9045542E90255A6
:104100001032B242F8D104F00F040137032C03EB54
:1041100007130DD91E462246043A032A46F8045BCB
:10412000FAD8221F22F003020432134404F00304DD
:104130002CB1C9B21C4403F8011B9C42FBD1F0BC5A
:10414000704714460346C5E770B5054688B0084673
:104150000C4600F04FF8012202262149AB6B059076
:104160000792104404AA04940390AC680296069146
:1041700001921BB3616EB4F90C30CE079AB201D430
:10418000900525D5910406D4626E43F4005322F4C1
:104190000052A3816266284601AA214600F034FB42
:1041A000636E00280CBF0A254FF0FF35DA0702D4F2
:1041B000A3899B0506D5284608B070BD284600F0A7
:1041C000E7FAD7E7A06D00F0F9FD284608B070BD0A
:1041D000A06D00F0EFFDB4F90C309AB2D2E700BF49
:1041E000B8BA0008024B01461868FFF7ADBF00BF20
:1041F0001800002020F0030110F00300C0F10000BF
:1042000051F8043B00F1040C4FEACC0C6FF00002B3
:104210001CBF22FA0CF213434FF0010C4CEA0C2C99
:104220004CEA0C4CA3EB0C0222EA030212EACC1279
:1042300004BF51F8043B0430F4D0C2F1000102EA9B
:104240000102B2FA82F2C2F11F0200EBD200704703
:104250002DE9F04F83B0044600F0BEFC40F2B1738C
:104260009C4240F395804FF4C873594AE71782FB8C
:104270000418C7EBE81C03FB1C4C6FF4F661BCF19F
:10428000000F0CBF3023002340F26D1A6FF4C86694
:104290004FF06409054661180193A4F26D734FEA6B
:1042A000A10EC7EB681782FB0318A4F2B2710AFBD8
:1042B00001E1A619A2FB0662DB17A3EB681309FB59
:1042C00017470B4403EBD216DFF8108104F0030309
:1042D0004460009300F1500E2B7AD5F814904A2BCD
:1042E0005BD0442B1CD106EB0903AA69A96A08FB21
:1042F00003220A44D317C5E908232835AE45EBD17C
:10430000D0E91223D0E90845944275EB0303B4BF0A
:104310000122002201230260184603B0BDE8F08F9D
:10432000009B002B4CD0DDF804A0EA68294B012A41
:104330009A4433460EDD4FEA820BABF10804544435
:10434000AAF1040252F8041F94420B44FAD1ABF1D3
:10435000040BDA4420491A1D81FB0214D1171444BE
:10436000C1EBA401C1EBC101521AB9EB02092A69E0
:1043700048BF09F10709013ADAF80010C2EBC2029E
:104380004A448A4202DB073A8A42FCDA1344ACE729
:104390000023184603B0BDE8F08F009A06EB09032E
:1043A00032B92FB1B9F13B0FC8BF0133013B9CE7D4
:1043B000BCF1000FFAD1B9F13B0FC8BF0133F5E7EB
:1043C000019B002F0CBF9A464FF0300AADE700BFAB
:1043D0001F85EB5158BA000893244992805101007F
:1043E000014800F0E5BC00BF50130020014800F078
:1043F000E3BC00BF50130020014B186800F002B866
:10440000180000202DE9F04F8BB0054600F0E4FBCA
:10441000BC490746284600F0D7FB0446002800F0B8
:10442000E780B94E316831B101F056FA10B90BB0DE
:10443000BDE8F08F3168084600F0C2FC2046FFF767
:10444000D9FE411C284600F0C3FC306010B1214663
:1044500001F020FB237808AD3A2B08BF01342B462E
:10446000AA4AAB49204601F0C5F90028DFDD089BC8
:10447000E25C1C442D2A00F0CB804FF001082B2A6F
:1044800008BF0134002606AB02930DF1160300931A
:104490000395019505AA2B469E492046ADF8166066
:1044A000ADF8186001F0A6F9B042C0DD4FF46160CC
:1044B000BDF81620BDF81810BDF81430C2EB02127A
:1044C00001EB820200FB032308FB03F3089ADFF8E9
:1044D00058821444DFF834C2DFF84492BB622046AD
:1044E00042462B468A49C9F800C001F083F9B04220
:1044F00040F39580089BC9F80480E25C1C442D2A97
:1045000000F0F2804FF001082B2A08BF013400268A
:1045100006ABCDE901530DF11603009303952B462D
:1045200005AA7C492046ADF81460ADF81660ADF8D8
:104530001860089601F05EF9B04240F3D0804FF465
:104540006160BDF81630BDF81810C3EB0313BDF859
:10455000142001EB830300FB023308FB03F33B65EC
:10456000B8464FF00009089BDFF8C0A1DFF8C0B1E2
:104570001C4426782C2E04BF667801344D2E65D05D
:104580004A2E08BF01344FF00A0209A9204618BF7D
:10459000442601F0DFFB099BADF81E00A34248D082
:1045A00080B2C8F8140088F808601C460023022274
:1045B000ADF81630ADF81420ADF818300893237814
:1045C0002F2B6ED04FF4E153C8F8183008F12808AB
:1045D000B9F1000F20D07868FFF73AFEBA6A3B6D58
:1045E0004D489B1A18BF01234C4903600A601EE71F
:1045F0004A4A454D48494A4B14604A4A28680C606B
:10460000C3E9002200F0DCFB2C600BB0BDE8F08FAA
:1046100001344FF0FF3835E74FF00109A9E7B86AD8
:104620003E49D9F800203C4B0860C9F804201E60C0
:10463000FDE6B9F1000F5BD04D240B2001210022D3
:1046400087F83040C7E90D01FA63AEE70DF11E02AD
:1046500007ABCDE90152009303952B460DF11A02E9
:104660005146204601F0C6F803287FF4E0AEBDF8BD
:104670001A305A1E0B2A3FF6DAAEBDF81C20511E26
:1046800004293FF6D4AEBDF81E1006293FF6CFAE82
:10469000C8E9033288F80860C8F81410089B1C4465
:1046A00084E74FF4616606ABCDE901530DF11603C3
:1046B000009305AA2B4659462046039501F09AF827
:1046C000BDF81620BDF81800C2EB0212BDF8143078
:1046D000089900EB820206FB03230C4474E7BB6AD3
:1046E000A3F561633B653BE701344FF0FF380EE70C
:1046F0004D2003210222C7F814903872C7E9031233
:1047000053E700BFBCBA0008EC120020E012002002
:10471000C4BA0008D4BA0008F0120020F412002035
:1047200048040020C0BA0008D4120020E8BA0008EB
:10473000FCBA0008002310B504468181C281C0E99B
:10474000003383604366C0E904338361194608225D
:104750005C30FFF7AFFC07480749084A084BC4E93B
:104760000740C4E90912E36204F15800BDE81040B3
:1047700000F01ABB4D58000875580008B1580008E1
:10478000D1580008014900F0B9B900BFA16900087B
:1047900010B50446144800F00DFBA26BFAB90320D3
:1047A000124904F53B73C4F8E832C4F8E022C4F8B7
:1047B000E402E16360680421FFF7BCFFA068012206
:1047C0000921FFF7B7FFE06802221221FFF7B2FFCD
:1047D00001230548A363BDE8104000F0EFBA02488A
:1047E000BDE8104000F0EABA4013002085470008F9
:1047F000014800F0DFBA00BF54130020014800F068
:10480000DDBA00BF541300209368002B00F0DB805A
:104810002DE9F04FB1F90C300C469BB2190783B06B
:10482000824690462BD522694AB313F00202D8F88B
:10483000006033D000273D46D4F824B0E169DFF8AA
:10484000B892C5B14D452B463A4628BF4B46504617
:10485000D847002840F3BF80D8F8083007441B1A17
:104860002D1AC8F80830002B00F0A980D4F824B025
:10487000E169002DE6D1D6E900750836E1E7214669
:10488000504602F009F8002840F03081B4F90C30AD
:10489000D8F800609BB213F00202CBD113F00109EB
:1048A0005ED14D46A7682068002D55D09A0540F18D
:1048B0009C80AF42BB4600F2DE8013F4906F2FD095
:1048C000D4E9041707EB4707A0EB010B07EBD777F9
:1048D000681C7F105844B8423A4684BF07463A469F
:1048E0005B0540F1D9801146504600F071FA00286E
:1048F00000F0F6805A4621690190FFF765FBA28916
:10490000019B22F4906242F08002A281A7EB0B028D
:1049100003EB0B006761AB462F4623612060A2606A
:104920005A46494600F02CFD2368A2685B44AB461A
:104930000025D71BA7602360D8F80870D944A7EBDF
:104940000B07C8F80870002F39D0B4F90C30A768ED
:104950009BB22068002DA9D1D6E900950836A3E7BF
:1049600033469146104617464E469B46002F6ED062
:10497000002876D020682169B9454B4628BF3B46C0
:104980008842626903D9A5681544AB4276DC9A4235
:1049900000F398801346656A3246E1695046A8479D
:1049A000051E18DDB9EB05090FD00120D8F8083035
:1049B0002E445B1B7F1BC8F80830002BD6D100208B
:1049C00003B0BDE8F08F002070472146504602F04A
:1049D000F9F80028EAD0B4F90C304FF0FF3043F07A
:1049E0004003A38103B0BDE8F08F2369834217D34E
:1049F0006269AA4214D83F4B676A9D4294BF2B4616
:104A00006FF0004393FBF2F3E16902FB03F35046BE
:104A10004A46B847B0F1000BDDDDA5EB0B058BE78F
:104A2000AF4228BF2F4649463A4600F0A9FCA3688A
:104A30002268DB1B3A44BB46A3602260002BECD10A
:104A40002146504602F0BEF80028E6D0C3E70BF13D
:104A5000080353F8047C9B4653F8086C0833002F76
:104A6000F7D03A460A21304600F044FC38B3013012
:104A7000A0EB06097EE72F46AB4651E731462A46B2
:104A800000F07EFC236821462B442360504602F050
:104A900099F8002886D09EE7504600F0DFFC0346D8
:104AA00000287FF433AF2169504602F009F90C2247
:104AB000B4F90C30CAF8002023F080038DE707F129
:104AC000010957E71A4631461D46019300F058FC8C
:104AD000A1682268019BC91A1344A160236061E7A1
:104AE0000C22B4F90C30CAF8002076E74FF0FF3002
:104AF00066E700BFFEFFFF7F00FCFF7F2DE9F84364
:104B000010F538761ED0884607464FF00009D6E9E2
:104B10000154013D10D4A389013D012B08D9B4F9FA
:104B20000E30013304D021463846C04749EA000917
:104B30006B1C04F16804EED13668002EE7D14846BC
:104B4000BDE8F883B1464846BDE8F8832DE9F04753
:104B50001C4F0E469146804601F016FF3D68F5B1A8
:104B600034785CB13D2C18BF344602D117E03D2BA0
:104B700015D014F8013F002BF9D1A41B286870B19F
:104B80002246314600F0E4FF28B92868035D00EBB7
:104B9000040A3D2B09D055F8040F0028F0D14046F7
:104BA00001F0F8FE0020BDE8F0873B684046ED1AB2
:104BB000AD10C9F8005001F0EDFE0AF10100BDE8AA
:104BC000F08700BFB808002000B583B001AAFFF746
:104BD000BDFF03B05DF804FB00487047500400209F
:104BE0002DE9F041D0E900670C4630463946604A6D
:104BF000002302F055FD394600F52F285C4A304667
:104C0000002302F04DFD4FF46163002AB8BF02F5A6
:104C1000A8325848B8BF02F5C072A0FB02604FEA44
:104C2000D02003FB10225449B4BF08F66B2508F6C8
:104C30006C25524BA1FB0261EE1C83FB06739F198E
:104C4000F317C3EBA7034909C3EBC303F31AA0602F
:104C5000C1EB011048BF0733A2EB8002002DC4E96D
:104C60000021A36179DB464BE81783FB0523C0EBEA
:104C7000E33040F26D164349434A01FB0051434F74
:104C80008D08A2FB0532DFF81CC1A7FB05350B0917
:104C9000ACFB03C301EBD222A2EBD5123C4DA2EB3D
:104CA00013123C4BA5FB02C5A3FB023C9308A7FBD8
:104CB0000337521B01EBDC3305EB5202A3EBD71396
:104CC000120A06FB1233344D03EB83010231A5FBBC
:104CD00001514FF4C876C90909298CBF6FF0090743
:104CE000022701EBC10506FB002005EB05152B4E45
:104CF0000235A6FB056539445E1C012998BF0130C9
:104D0000B3F5997FA6EB950524D2960717D04FF4FB
:104D1000C877234EA6FB02C6F60907FB1622B2FA95
:104D200082F252093B3313440022A0F26C7060619E
:104D3000E361C4E9035122622046BDE8F0816427A3
:104D4000174EA6FB02C6760907FB1626002EDED0FC
:104D50000122E7E7A3F59973E6E7A5F50E330848C6
:104D6000A3F52C7380FB0320DB17C3EBE03080E757
:104D700080510100C5B3A291898888889324499203
:104D8000BD066B394FC5FDFF7F206B39D97CC659F5
:104D900061F319671F2BD3E5D7802BD6CDCCCCCCB4
:104DA0001F85EB5141D67200704700BF704700BFAE
:104DB000704700BF704700BF704700BF704700BF1B
:104DC000024B0146186801F07BBF00BF18000020AD
:104DD0002DE9F04F01F10B05162D83B0064623D8BF
:104DE000102900F2B68000F02DFB102518230220B8
:104DF000CC4F3B445C68A3F10802944200F056811A
:104E00006368E16823F0030323445A68A56842F00D
:104E10000102E96030468D605A6000F019FB0834E9
:104E2000204603B0BDE8F08F35F0070500F1918012
:104E3000A94200F28E8000F005FBB5F5FC7FC0F0C2
:104E400064816B0A00F08C80042B00F23681AB0980
:104E500003F1390003F1380CC100B24F39444C68FA
:104E60000839A14206D10CE0002A80F21B81E468D7
:104E7000A14206D0636823F003035A1B0F2AF3DD17
:104E800060463C69DFF8B0C264456FD0636823F0C8
:104E900003035A1B0F2A00F32681002AC7E904CC1A
:104EA00080F21781B3F5007F80F059810122DB0881
:104EB000991013448A40796857F833E007EBC30828
:104EC0000A43A8F10801C4E902E17A6047F83340D7
:104ED000CEF80C40012483109C4094424CD81442DC
:104EE00006D120F003006400144200F10400FAD05F
:104EF00007EBC009CE468046DEF80C309E4507D150
:104F000007E1002A80F21C81DB689E4500F00181E8
:104F1000596821F003014A1B0F2AF2DD45F0010810
:104F20003046D3E902E41D4442F00106C3F8048090
:104F3000CEF80C40C4F808E0C7E90455C5E902CC36
:104F40006E605A50019300F083FA019B03F108044C
:104F500066E700240C232046336003B0BDE8F08FE1
:104F60004FF4007140204FF03F0C76E701247A683F
:104F700083109C409442B2D9BC68636823F0030953
:104F8000A94503D3A9EB05030F2B7BDC664BDFF8A8
:104F9000ACA11A68DAF8003005EB0208013300F022
:104FA0003A8108F5805808F10F0828F47F6828F046
:104FB0000F084146304600F00BFCB0F1FF3F83463E
:104FC00000F0F68004EB0900584500F2EF80574AE4
:104FD00013684344136000F03F81DAF80010013198
:104FE0001BBFABEB00001B18CAF800B013601BF02E
:104FF000070300F02681C3F10801C3F580538B44F9
:105000000833D844C8F30B08A3EB080841463046E0
:10501000019200F0DDFB431C019A00F03881A0EB07
:105020000B01414441F001011368BC424344C7F8FD
:1050300008B01360CBF8041015D0B9F10F0F40F28F
:1050400022814FF0050E6168A9F10C0020F00700E5
:1050500001F00101014304EB000C0F286160CCE971
:1050600001EE00F22C81324A32481168BC688B4252
:10507000016888BF136062688B4222F0030288BF18
:10508000036099E045F0010243F0010325446260AA
:105090003046BD6008346B6000F0DAF9204603B09A
:1050A000BDE8F08F23445A68E168AFE6DC68A342AC
:1050B00008BF02303FF4E5AEA2E6142B70D9542BA2
:1050C00000F2AC802B0B03F16F0003F16E0CC100FA
:1050D000C3E623445A68304642F001025A6008345D
:1050E00000F0B6F99CE645F0010E42F001012544BE
:1050F000C4F804E03046C7E90455C5E902CC69604C
:10510000E25000F0A5F908348AE6E80805F1080342
:105110006EE608F1010818F0030F0EF1080E7FF497
:10512000EBAE60E0A804002028130020F812002055
:105130002013002024130020B0040020B008002019
:105140001C4619444A68DB6854F8085F42F00102C3
:105150004A603046EB609D6000F07AF960E65A0ADA
:10516000042A35D9142A6FD802F15C01C9005B32D8
:1051700007EB010E7958AEF1080E8E4558D04A68FB
:1051800022F003029A4202D989688E45F7D1D1F8FC
:105190000CE07A68C4E9021ECEF80840CC6099E6BB
:1051A00003F15C0003F15B0CC10056E6BC4272D017
:1051B000BC68626822F003029542A2EB050302D8A4
:1051C0000F2B3FF75FAF304600F042F9002427E68F
:1051D0009A0902F13901C9003832C9E7D9F80090BB
:1051E000994540F0838010F0030FA9F1080300F106
:1051F000FF30F3D17B6823EA04037B6064009C42A8
:105200003FF6BAAE1CB9B7E6640008F104081C42C8
:10521000FAD040466CE608F11008CAE6B3F5AA7F5A
:1052200026D8EB0B03F1780003F1770CC10014E6EC
:105230004FF001087B68921008FA02F21A437A6074
:10524000A8E74FF48053DCE6542A29D81A0B02F160
:105250006F01C9006E328BE7C0F30B0100297FF4A8
:10526000BCAE09EB0802B96842F001024A60FAE6F6
:1052700040F2545293421CD8AB0C03F17D0003F171
:105280007C0CC100E9E50123CBF804309BE7012148
:105290004FF00008C8E6164A1368434413609CE6C2
:1052A000B2F5AA7F14D8DA0B02F17801C90077327F
:1052B0005EE74FF47E717F204FF07E0CCDE504F168
:1052C00008013046019201F0FBFC019A1368CAE61E
:1052D00040F254518A4205D89A0C02F17D01C9006E
:1052E0007C3245E74FF47E717E2241E77B6885E79B
:1052F000F8120020830770B4CDB23DD0541E0AB31B
:105300000378AB421FD0431C05E014F1FF3419D3DE
:105310000278AA4217D013F0030F184603F10103D5
:10532000F3D1032C11D84CB30378AB420BD0044417
:10533000431C02E00278AA4205D09C42184603F1C1
:105340000103F7D1002070BC704706460A0292B2F2
:105350002A4342EA0242336830465340A3F1013106
:1053600021EA030313F0803F06F10406DCD1043C7C
:10537000032C3046EFD8D6E71446D2E72046E2E7C2
:105380008842F0B40DD98B1883420AD9841832B1FF
:10539000224613F8014D994202F8014DF9D1F0BCB3
:1053A00070470F2A48D940EA01039B0746D1A2F172
:1053B00010031B0901F1200707EB031701F110048B
:1053C00000F1100554F8106C103445F8106C54F8C6
:1053D0001C6C103545F81C6C54F8186C45F8186CAA
:1053E00054F8146CBC4245F8146CEBD1013302F054
:1053F0000F051B01032D1944034421D90F462C46E8
:105400001E1F57F804CB043C032C46F804CFF8D8F1
:105410002C1F24F0030404342344214402F003022B
:10542000002ABCD0013B0A4411F8014B914203F819
:10543000014FF9D1F0BC70470346F1E70346F1E7AD
:105440002A46EDE70148FFF7B5BC00BF4413002032
:105450000148FFF7B3BC00BF441300202DE9F04F13
:10546000924683B0002900F0A1800D4680460AF1E3
:105470000B04FFF7E7FF55F8042C162C22F0030667
:10548000A5F108073ED810242146A2453FD88E42F8
:1054900007EB060974DAC84B9868484500F0AA8003
:1054A000D9F8040020F001034B445B68DB0740F1AE
:1054B0008380D20734D551464046FFF789FC8246A7
:1054C000E0B155F8043CA0F1080223F001033B448D
:1054D000934200F00E81321F242A00F21481132A15
:1054E000296800F2FB8003462A461960516859601A
:1054F00092689A602946404601F0E2FB4046FFF779
:10550000A7FF4FE024F00704002C2146BDDA4FF03E
:10551000000A0C235046C8F8003003B0BDE8F08FF5
:1055200055F8083CA7EB030BDBF8042022F003023C
:10553000B3188B42BFDBDA46DBF80C105AF8080FC1
:10554000321F242AC1600BEB0309886000F2BE8081
:10555000132A296840F2D580CBF8081069681B2A05
:10556000CBF80C10A96800F2E5800BF110020835A9
:10557000116069681E465160AB685F46554693608E
:105580007A68331B0F2B02F0010222D832437A6073
:10559000D9F8043043F00103C9F804304046FFF75E
:1055A00057FFAA46504603B0BDE8F08F114603B03E
:1055B000BDE8F04FFFF70CBC20F0030033188B421E
:1055C00063DBD9E902121E46CA6007EB030991604A
:1055D000D6E73919224343F001037A604B60D9F8CA
:1055E0000430083143F00103C9F80430404601F0AB
:1055F00067FBD3E7D0F8049004F1100029F0030909
:10560000B144814580F28380D2073FF554AF55F80D
:10561000082CA7EB020BDBF8042022F003029144D4
:10562000484585DCDA46DBF80C105AF8080F321FC3
:10563000242AC160886000F2AB80132A296840F2F6
:10564000A580CBF8081069681B2ACBF80C10A96854
:1056500000F2A5800BF110020835116069685160F5
:10566000A9689160A9EB04020BEB040142F001026E
:1056700099604A60DBF80430404603F001031C43A4
:10568000CBF80440FFF7E4FE8CE7D3073FF513AFF8
:1056900055F8083CA7EB030BDBF8042022F00302CB
:1056A000104483198B42FFF643AFD9E90201DA4671
:1056B000C16088605AF8080FDBF80C10321F242AEA
:1056C000C1600BEB030988607FF642AF2946504664
:1056D0001E465F46FFF754FE554651E701606B6872
:1056E0001B2A436032D805F1080200F10803A968BB
:1056F000FBE650F8043C23F003031E4407EB0609C5
:105700003EE7524634E72946FFF73AFEF2E6A9EBB8
:105710000409274449F001029F607A6055F8043C6F
:10572000404603F001031C4345F8044CFFF790FE8C
:10573000AA4637E7CBF81010E968242ACBF81410F2
:1057400029690FD00BF11802103511E7AB68242A34
:105750008360EB68C3600FD005F1100200F1100305
:105760002969C2E6CBF8181069690BF12002CBF861
:105770001C10A9691835FBE62B6905F118020361B5
:10578000696900F118034161A969AEE6524664E710
:10579000294650460193FFF7F3FD019B62E7CBF8E2
:1057A0001010E968242ACBF81410296906D00BF1EF
:1057B0001802103551E700BFA8040020CBF81810DC
:1057C00069690BF12002CBF81C10A969183544E770
:1057D00038B50023064C05460846236002F05AF906
:1057E000431C00D038BD2368002BFBD02B6038BD94
:1057F000581300200EB44FF40172F0B59CB021ACE8
:1058000054F8047BADF8142002900690FEF7F2FCE9
:10581000002105464FF6FF760A4B0194186823468F
:10582000094C0E9113913A4602A903950795ADF8DC
:1058300016600A9400F03CFB1CB0BDE8F04003B0D9
:10584000704700BF180000207158000810B50C46C2
:10585000B1F90E1001F028FC002803DB236D03448E
:10586000236510BDA38923F48053A38110BD00BF1D
:10587000002070472DE9F041B1F90C409846E3054E
:105880000D461746B1F90E10064607D50223002231
:1058900001F038FBB5F90C40B5F90E1024F4805432
:1058A000AC8143463A463046BDE8F04100F0DEBFE9
:1058B00010B50C46B1F90E1001F024FBA389421C6F
:1058C0000EBF23F4805343F480532065A38110BDA1
:1058D000B1F90E1001F046B880EA010C1CF0030F7C
:1058E00037D110F0030C20F0030021F0030150F831
:1058F000042B08BF51F8043B0ED08CF0030C6FF062
:105900007F434FEACC0C23FA0CFC51F8043B42EAEB
:105910000C0243EA0C0300BFA2F1013C9A4201BF12
:105920002CEA020C1CF0803F50F8042B51F8043B89
:10593000F2D04FEA02604FEA1222012828BFB0EBF2
:10594000036F08BF1B0AF4D003F0FF03000EC01A58
:10595000704710F0030F0AD010F8012B11F8013B2B
:10596000012A28BF9A42F4D0A2EB030070474DF8F9
:10597000045D50F8042B01F0030521F0030151F8F8
:10598000043B022D26D04DD822F07F45B5EB132FD6
:10599000A2F1013C2CEA020C0DD11CF0803C08BFA6
:1059A00051F8043B0AD185EA0205B5EB036F0CD12F
:1059B00050F8042BE8E74FEA13235BE03CF07F4C00
:1059C00054D10B784FEA126554E04FEA126503F0A8
:1059D000FF034FE04FEA0245A2F1013C4FEA1545B3
:1059E0002CEA020CB5EB134F18D11CF0803C08BF19
:1059F00051F8043B07D185EA0205B5EB034F09D105
:105A000050F8042BE6E75FEA0C4C2FD10B884FEAE5
:105A100012452FE04FEA03434FEA12454FEA134382
:105A200028E000BF02F0FF05B5EB136FA2F1013CC7
:105A30002CEA020C0DD11CF0803C08BF51F8043B4D
:105A40000AD185EA0205B5EB032F0AD150F8042BE1
:105A5000E8E74FEA13630DE012F0FF0F06D051F8AC
:105A6000043B4FEA122523F07F4303E04FF0000090
:105A700020BC704705F0FF0203F0FF00012828BF9B
:105A8000904204BF2D0A1B0AF4D0A2EB000020BCF8
:105A9000704700BF80EA0102844612F0030F4FD125
:105AA00011F0030F32D14DF8044D11F0040F51F8ED
:105AB000043B0BD0A3F101329A4312F0803F04BFA4
:105AC0004CF8043B51F8043B16D100BF51F8044B8D
:105AD000A3F101329A4312F0803FA4F101320BD1BD
